{
  "_format": "hh-sol-artifact-1",
  "contractName": "SimpleSwap",
  "sourceName": "contracts/SimpleSwap.sol",
  "abi": [
    {
      "inputs": [
        {
          "internalType": "contract ISwapRouter",
          "name": "_swapRouter",
          "type": "address"
        }
      ],
      "stateMutability": "nonpayable",
      "type": "constructor"
    },
    {
      "inputs": [],
      "name": "TOKEN0",
      "outputs": [
        {
          "internalType": "address",
          "name": "",
          "type": "address"
        }
      ],
      "stateMutability": "view",
      "type": "function"
    },
    {
      "inputs": [],
      "name": "TOKEN1",
      "outputs": [
        {
          "internalType": "address",
          "name": "",
          "type": "address"
        }
      ],
      "stateMutability": "view",
      "type": "function"
    },
    {
      "inputs": [],
      "name": "poolFee",
      "outputs": [
        {
          "internalType": "uint24",
          "name": "",
          "type": "uint24"
        }
      ],
      "stateMutability": "view",
      "type": "function"
    },
    {
      "inputs": [
        {
          "internalType": "uint256",
          "name": "amountIn",
          "type": "uint256"
        }
      ],
      "name": "swapExactInputSingle",
      "outputs": [
        {
          "internalType": "uint256",
          "name": "amountOut",
          "type": "uint256"
        }
      ],
      "stateMutability": "nonpayable",
      "type": "function"
    },
    {
      "inputs": [
        {
          "internalType": "uint256",
          "name": "amountOut",
          "type": "uint256"
        },
        {
          "internalType": "uint256",
          "name": "amountInMaximum",
          "type": "uint256"
        }
      ],
      "name": "swapExactOutputSingle",
      "outputs": [
        {
          "internalType": "uint256",
          "name": "amountIn",
          "type": "uint256"
        }
      ],
      "stateMutability": "nonpayable",
      "type": "function"
    },
    {
      "inputs": [],
      "name": "swapRouter",
      "outputs": [
        {
          "internalType": "contract ISwapRouter",
          "name": "",
          "type": "address"
        }
      ],
      "stateMutability": "view",
      "type": "function"
    }
  ],
  "bytecode": "0x60a06040523480156200001157600080fd5b5060405162001261380380620012618339818101604052810190620000379190620000f0565b8073ffffffffffffffffffffffffffffffffffffffff1660808173ffffffffffffffffffffffffffffffffffffffff16815250505062000122565b600080fd5b600073ffffffffffffffffffffffffffffffffffffffff82169050919050565b6000620000a48262000077565b9050919050565b6000620000b88262000097565b9050919050565b620000ca81620000ab565b8114620000d657600080fd5b50565b600081519050620000ea81620000bf565b92915050565b60006020828403121562000109576200010862000072565b5b60006200011984828501620000d9565b91505092915050565b60805161110062000161600039600081816101b1015281816102af01528181610353015281816103b10152818161049e015261055c01526111006000f3fe608060405234801561001057600080fd5b50600436106100625760003560e01c8063089fe6aa14610067578063443ec74d146100855780635ee04d78146100a357806373bd43ad146100c1578063c31c9c07146100f1578063c4b69a181461010f575b600080fd5b61006f61013f565b60405161007c91906109d4565b60405180910390f35b61008d610145565b60405161009a9190610a30565b60405180910390f35b6100ab61015d565b6040516100b89190610a30565b60405180910390f35b6100db60048036038101906100d69190610a86565b610175565b6040516100e89190610ac2565b60405180910390f35b6100f9610351565b6040516101069190610b3c565b60405180910390f35b61012960048036038101906101249190610b57565b610375565b6040516101369190610ac2565b60405180910390f35b610bb881565b7307af94d5bd598ae45e162eb2d0a5f7bb71c3f77c81565b73775c93773d366d4aa3c2ad760d1206c89f680e9481565b60006101977307af94d5bd598ae45e162eb2d0a5f7bb71c3f77c3330856105b4565b6101d67307af94d5bd598ae45e162eb2d0a5f7bb71c3f77c7f00000000000000000000000000000000000000000000000000000000000000008461070c565b60006040518061010001604052807307af94d5bd598ae45e162eb2d0a5f7bb71c3f77c73ffffffffffffffffffffffffffffffffffffffff16815260200173775c93773d366d4aa3c2ad760d1206c89f680e9473ffffffffffffffffffffffffffffffffffffffff168152602001610bb862ffffff1681526020013373ffffffffffffffffffffffffffffffffffffffff1681526020016402540be4004261027e9190610bc6565b815260200184815260200160008152602001600073ffffffffffffffffffffffffffffffffffffffff1681525090507f000000000000000000000000000000000000000000000000000000000000000073ffffffffffffffffffffffffffffffffffffffff1663414bf389826040518263ffffffff1660e01b81526004016103069190610cd8565b6020604051808303816000875af1158015610325573d6000803e3d6000fd5b505050506040513d601f19601f820116820180604052508101906103499190610d09565b915050919050565b7f000000000000000000000000000000000000000000000000000000000000000081565b60006103977307af94d5bd598ae45e162eb2d0a5f7bb71c3f77c3330856105b4565b6103d67307af94d5bd598ae45e162eb2d0a5f7bb71c3f77c7f00000000000000000000000000000000000000000000000000000000000000008461070c565b60006040518061010001604052807307af94d5bd598ae45e162eb2d0a5f7bb71c3f77c73ffffffffffffffffffffffffffffffffffffffff16815260200173775c93773d366d4aa3c2ad760d1206c89f680e9473ffffffffffffffffffffffffffffffffffffffff168152602001610bb862ffffff1681526020013373ffffffffffffffffffffffffffffffffffffffff168152602001428152602001858152602001848152602001600073ffffffffffffffffffffffffffffffffffffffff1681525090507f000000000000000000000000000000000000000000000000000000000000000073ffffffffffffffffffffffffffffffffffffffff1663db3e2198826040518263ffffffff1660e01b81526004016104f59190610dd8565b6020604051808303816000875af1158015610514573d6000803e3d6000fd5b505050506040513d601f19601f820116820180604052508101906105389190610d09565b9150828210156105ad576105827307af94d5bd598ae45e162eb2d0a5f7bb71c3f77c7f0000000000000000000000000000000000000000000000000000000000000000600061070c565b6105ac7307af94d5bd598ae45e162eb2d0a5f7bb71c3f77c3384866105a79190610df4565b610861565b5b5092915050565b6000808573ffffffffffffffffffffffffffffffffffffffff166323b872dd60e01b8686866040516024016105eb93929190610e28565b604051602081830303815290604052907bffffffffffffffffffffffffffffffffffffffffffffffffffffffff19166020820180517bffffffffffffffffffffffffffffffffffffffffffffffffffffffff83818316178352505050506040516106559190610ed0565b6000604051808303816000865af19150503d8060008114610692576040519150601f19603f3d011682016040523d82523d6000602084013e610697565b606091505b50915091508180156106c557506000815114806106c45750808060200190518101906106c39190610f1f565b5b5b610704576040517f08c379a00000000000000000000000000000000000000000000000000000000081526004016106fb90610fa9565b60405180910390fd5b505050505050565b6000808473ffffffffffffffffffffffffffffffffffffffff1663095ea7b360e01b8585604051602401610741929190610fc9565b604051602081830303815290604052907bffffffffffffffffffffffffffffffffffffffffffffffffffffffff19166020820180517bffffffffffffffffffffffffffffffffffffffffffffffffffffffff83818316178352505050506040516107ab9190610ed0565b6000604051808303816000865af19150503d80600081146107e8576040519150601f19603f3d011682016040523d82523d6000602084013e6107ed565b606091505b509150915081801561081b575060008151148061081a5750808060200190518101906108199190610f1f565b5b5b61085a576040517f08c379a00000000000000000000000000000000000000000000000000000000081526004016108519061103e565b60405180910390fd5b5050505050565b6000808473ffffffffffffffffffffffffffffffffffffffff1663a9059cbb60e01b8585604051602401610896929190610fc9565b604051602081830303815290604052907bffffffffffffffffffffffffffffffffffffffffffffffffffffffff19166020820180517bffffffffffffffffffffffffffffffffffffffffffffffffffffffff83818316178352505050506040516109009190610ed0565b6000604051808303816000865af19150503d806000811461093d576040519150601f19603f3d011682016040523d82523d6000602084013e610942565b606091505b5091509150818015610970575060008151148061096f57508080602001905181019061096e9190610f1f565b5b5b6109af576040517f08c379a00000000000000000000000000000000000000000000000000000000081526004016109a6906110aa565b60405180910390fd5b5050505050565b600062ffffff82169050919050565b6109ce816109b6565b82525050565b60006020820190506109e960008301846109c5565b92915050565b600073ffffffffffffffffffffffffffffffffffffffff82169050919050565b6000610a1a826109ef565b9050919050565b610a2a81610a0f565b82525050565b6000602082019050610a456000830184610a21565b92915050565b600080fd5b6000819050919050565b610a6381610a50565b8114610a6e57600080fd5b50565b600081359050610a8081610a5a565b92915050565b600060208284031215610a9c57610a9b610a4b565b5b6000610aaa84828501610a71565b91505092915050565b610abc81610a50565b82525050565b6000602082019050610ad76000830184610ab3565b92915050565b6000819050919050565b6000610b02610afd610af8846109ef565b610add565b6109ef565b9050919050565b6000610b1482610ae7565b9050919050565b6000610b2682610b09565b9050919050565b610b3681610b1b565b82525050565b6000602082019050610b516000830184610b2d565b92915050565b60008060408385031215610b6e57610b6d610a4b565b5b6000610b7c85828601610a71565b9250506020610b8d85828601610a71565b9150509250929050565b7f4e487b7100000000000000000000000000000000000000000000000000000000600052601160045260246000fd5b6000610bd182610a50565b9150610bdc83610a50565b9250828201905080821115610bf457610bf3610b97565b5b92915050565b610c0381610a0f565b82525050565b610c12816109b6565b82525050565b610c2181610a50565b82525050565b610c30816109ef565b82525050565b61010082016000820151610c4d6000850182610bfa565b506020820151610c606020850182610bfa565b506040820151610c736040850182610c09565b506060820151610c866060850182610bfa565b506080820151610c996080850182610c18565b5060a0820151610cac60a0850182610c18565b5060c0820151610cbf60c0850182610c18565b5060e0820151610cd260e0850182610c27565b50505050565b600061010082019050610cee6000830184610c36565b92915050565b600081519050610d0381610a5a565b92915050565b600060208284031215610d1f57610d1e610a4b565b5b6000610d2d84828501610cf4565b91505092915050565b61010082016000820151610d4d6000850182610bfa565b506020820151610d606020850182610bfa565b506040820151610d736040850182610c09565b506060820151610d866060850182610bfa565b506080820151610d996080850182610c18565b5060a0820151610dac60a0850182610c18565b5060c0820151610dbf60c0850182610c18565b5060e0820151610dd260e0850182610c27565b50505050565b600061010082019050610dee6000830184610d36565b92915050565b6000610dff82610a50565b9150610e0a83610a50565b9250828203905081811115610e2257610e21610b97565b5b92915050565b6000606082019050610e3d6000830186610a21565b610e4a6020830185610a21565b610e576040830184610ab3565b949350505050565b600081519050919050565b600081905092915050565b60005b83811015610e93578082015181840152602081019050610e78565b60008484015250505050565b6000610eaa82610e5f565b610eb48185610e6a565b9350610ec4818560208601610e75565b80840191505092915050565b6000610edc8284610e9f565b915081905092915050565b60008115159050919050565b610efc81610ee7565b8114610f0757600080fd5b50565b600081519050610f1981610ef3565b92915050565b600060208284031215610f3557610f34610a4b565b5b6000610f4384828501610f0a565b91505092915050565b600082825260208201905092915050565b7f5354460000000000000000000000000000000000000000000000000000000000600082015250565b6000610f93600383610f4c565b9150610f9e82610f5d565b602082019050919050565b60006020820190508181036000830152610fc281610f86565b9050919050565b6000604082019050610fde6000830185610a21565b610feb6020830184610ab3565b9392505050565b7f5341000000000000000000000000000000000000000000000000000000000000600082015250565b6000611028600283610f4c565b915061103382610ff2565b602082019050919050565b600060208201905081810360008301526110578161101b565b9050919050565b7f5354000000000000000000000000000000000000000000000000000000000000600082015250565b6000611094600283610f4c565b915061109f8261105e565b602082019050919050565b600060208201905081810360008301526110c381611087565b905091905056fea2646970667358221220d1694835e6e6b7f8e944f3c376b43f5e7f629dca0729fe5d3c36ada1c6ad854264736f6c63430008140033",
  "linkReferences": {},
  "deployedLinkReferences": {}
}