{
  "_format": "hh-sol-artifact-1",
  "contractName": "ArbitrageBot",
  "sourceName": "contracts/ArbContract.sol",
  "abi": [
    {
      "inputs": [
        {
          "internalType": "contract IERC20",
          "name": "_tokenIn",
          "type": "address"
        },
        {
          "internalType": "contract IERC20",
          "name": "_tokenOut",
          "type": "address"
        },
        {
          "internalType": "uint24",
          "name": "_lowFeeTier",
          "type": "uint24"
        },
        {
          "internalType": "uint24",
          "name": "_highFeeTier",
          "type": "uint24"
        },
        {
          "internalType": "address",
          "name": "_swapRouterAddress",
          "type": "address"
        },
        {
          "internalType": "address",
          "name": "_swapFactory",
          "type": "address"
        }
      ],
      "stateMutability": "nonpayable",
      "type": "constructor"
    },
    {
      "inputs": [
        {
          "internalType": "address",
          "name": "target",
          "type": "address"
        }
      ],
      "name": "AddressEmptyCode",
      "type": "error"
    },
    {
      "inputs": [
        {
          "internalType": "address",
          "name": "account",
          "type": "address"
        }
      ],
      "name": "AddressInsufficientBalance",
      "type": "error"
    },
    {
      "inputs": [],
      "name": "FailedInnerCall",
      "type": "error"
    },
    {
      "inputs": [
        {
          "internalType": "address",
          "name": "token",
          "type": "address"
        }
      ],
      "name": "SafeERC20FailedOperation",
      "type": "error"
    },
    {
      "inputs": [
        {
          "internalType": "uint256",
          "name": "amountIn",
          "type": "uint256"
        }
      ],
      "name": "executeArbitrage",
      "outputs": [
        {
          "internalType": "uint256",
          "name": "",
          "type": "uint256"
        }
      ],
      "stateMutability": "nonpayable",
      "type": "function"
    },
    {
      "inputs": [
        {
          "internalType": "uint24",
          "name": "feeTier",
          "type": "uint24"
        }
      ],
      "name": "getPrice",
      "outputs": [
        {
          "internalType": "uint256",
          "name": "",
          "type": "uint256"
        }
      ],
      "stateMutability": "view",
      "type": "function"
    },
    {
      "inputs": [],
      "name": "highFeeTier",
      "outputs": [
        {
          "internalType": "uint24",
          "name": "",
          "type": "uint24"
        }
      ],
      "stateMutability": "view",
      "type": "function"
    },
    {
      "inputs": [],
      "name": "lowFeeTier",
      "outputs": [
        {
          "internalType": "uint24",
          "name": "",
          "type": "uint24"
        }
      ],
      "stateMutability": "view",
      "type": "function"
    },
    {
      "inputs": [],
      "name": "owner",
      "outputs": [
        {
          "internalType": "address",
          "name": "",
          "type": "address"
        }
      ],
      "stateMutability": "view",
      "type": "function"
    },
    {
      "inputs": [],
      "name": "swapFactory",
      "outputs": [
        {
          "internalType": "contract IUniswapV3Factory",
          "name": "",
          "type": "address"
        }
      ],
      "stateMutability": "view",
      "type": "function"
    },
    {
      "inputs": [],
      "name": "swapRouter",
      "outputs": [
        {
          "internalType": "contract ISwapRouter",
          "name": "",
          "type": "address"
        }
      ],
      "stateMutability": "view",
      "type": "function"
    },
    {
      "inputs": [],
      "name": "tokenIn",
      "outputs": [
        {
          "internalType": "contract IERC20",
          "name": "",
          "type": "address"
        }
      ],
      "stateMutability": "view",
      "type": "function"
    },
    {
      "inputs": [],
      "name": "tokenOut",
      "outputs": [
        {
          "internalType": "contract IERC20",
          "name": "",
          "type": "address"
        }
      ],
      "stateMutability": "view",
      "type": "function"
    }
  ],
  "bytecode": "0x60806040523480156200001157600080fd5b5060405162001c8e38038062001c8e8339818101604052810190620000379190620002b4565b85600360006101000a81548173ffffffffffffffffffffffffffffffffffffffff021916908373ffffffffffffffffffffffffffffffffffffffff16021790555084600460006101000a81548173ffffffffffffffffffffffffffffffffffffffff021916908373ffffffffffffffffffffffffffffffffffffffff16021790555083600260146101000a81548162ffffff021916908362ffffff16021790555082600260176101000a81548162ffffff021916908362ffffff160217905550816000806101000a81548173ffffffffffffffffffffffffffffffffffffffff021916908373ffffffffffffffffffffffffffffffffffffffff16021790555080600160006101000a81548173ffffffffffffffffffffffffffffffffffffffff021916908373ffffffffffffffffffffffffffffffffffffffff16021790555033600260006101000a81548173ffffffffffffffffffffffffffffffffffffffff021916908373ffffffffffffffffffffffffffffffffffffffff16021790555050505050505062000350565b600080fd5b600073ffffffffffffffffffffffffffffffffffffffff82169050919050565b6000620001f782620001ca565b9050919050565b60006200020b82620001ea565b9050919050565b6200021d81620001fe565b81146200022957600080fd5b50565b6000815190506200023d8162000212565b92915050565b600062ffffff82169050919050565b6200025d8162000243565b81146200026957600080fd5b50565b6000815190506200027d8162000252565b92915050565b6200028e81620001ea565b81146200029a57600080fd5b50565b600081519050620002ae8162000283565b92915050565b60008060008060008060c08789031215620002d457620002d3620001c5565b5b6000620002e489828a016200022c565b9650506020620002f789828a016200022c565b95505060406200030a89828a016200026c565b94505060606200031d89828a016200026c565b93505060806200033089828a016200029d565b92505060a06200034389828a016200029d565b9150509295509295509295565b61192e80620003606000396000f3fe608060405234801561001057600080fd5b50600436106100935760003560e01c80638da5cb5b116100665780638da5cb5b14610122578063a7470fe414610140578063c31c9c071461015e578063d0202d3b1461017c578063f7c7724f1461019a57610093565b8063423dd0dd146100985780636379a48b146100c85780636daf390b146100e65780637944f94414610104575b600080fd5b6100b260048036038101906100ad9190610fb3565b6101ca565b6040516100bf9190610ff9565b60405180910390f35b6100d06103a4565b6040516100dd9190611023565b60405180910390f35b6100ee6103b9565b6040516100fb91906110bd565b60405180910390f35b61010c6103df565b60405161011991906110f9565b60405180910390f35b61012a610405565b6040516101379190611135565b60405180910390f35b61014861042b565b6040516101559190611023565b60405180910390f35b610166610440565b6040516101739190611171565b60405180910390f35b610184610464565b60405161019191906110bd565b60405180910390f35b6101b460048036038101906101af91906111b8565b61048a565b6040516101c19190610ff9565b60405180910390f35b600080600160009054906101000a900473ffffffffffffffffffffffffffffffffffffffff1673ffffffffffffffffffffffffffffffffffffffff16631698ee82600360009054906101000a900473ffffffffffffffffffffffffffffffffffffffff16600460009054906101000a900473ffffffffffffffffffffffffffffffffffffffff16866040518463ffffffff1660e01b8152600401610270939291906111e5565b602060405180830381865afa15801561028d573d6000803e3d6000fd5b505050506040513d601f19601f820116820180604052508101906102b19190611248565b905060008173ffffffffffffffffffffffffffffffffffffffff16633850c7bd6040518163ffffffff1660e01b815260040160e060405180830381865afa158015610300573d6000803e3d6000fd5b505050506040513d601f19601f820116820180604052508101906103249190611385565b50505050505090507801000000000000000000000000000000000000000000000000670de0b6b3a76400008273ffffffffffffffffffffffffffffffffffffffff168373ffffffffffffffffffffffffffffffffffffffff166103879190611456565b6103919190611456565b61039b91906114c7565b92505050919050565b600260179054906101000a900462ffffff1681565b600360009054906101000a900473ffffffffffffffffffffffffffffffffffffffff1681565b600160009054906101000a900473ffffffffffffffffffffffffffffffffffffffff1681565b600260009054906101000a900473ffffffffffffffffffffffffffffffffffffffff1681565b600260149054906101000a900462ffffff1681565b60008054906101000a900473ffffffffffffffffffffffffffffffffffffffff1681565b600460009054906101000a900473ffffffffffffffffffffffffffffffffffffffff1681565b6000600260009054906101000a900473ffffffffffffffffffffffffffffffffffffffff1673ffffffffffffffffffffffffffffffffffffffff163373ffffffffffffffffffffffffffffffffffffffff161461051c576040517f08c379a00000000000000000000000000000000000000000000000000000000081526004016105139061157b565b60405180910390fd5b6000610538600260149054906101000a900462ffffff166101ca565b90506000610556600260179054906101000a900462ffffff166101ca565b9050808210156105e757600061056b856105f3565b90506105dc600260009054906101000a900473ffffffffffffffffffffffffffffffffffffffff1682600460009054906101000a900473ffffffffffffffffffffffffffffffffffffffff1673ffffffffffffffffffffffffffffffffffffffff166109f99092919063ffffffff16565b8093505050506105ee565b6000925050505b919050565b6000610623600360009054906101000a900473ffffffffffffffffffffffffffffffffffffffff16333085610a78565b610670600360009054906101000a900473ffffffffffffffffffffffffffffffffffffffff1660008054906101000a900473ffffffffffffffffffffffffffffffffffffffff1684610bd0565b60008060009054906101000a900473ffffffffffffffffffffffffffffffffffffffff1673ffffffffffffffffffffffffffffffffffffffff1663414bf389604051806101000160405280600360009054906101000a900473ffffffffffffffffffffffffffffffffffffffff1673ffffffffffffffffffffffffffffffffffffffff168152602001600460009054906101000a900473ffffffffffffffffffffffffffffffffffffffff1673ffffffffffffffffffffffffffffffffffffffff168152602001600260149054906101000a900462ffffff1662ffffff1681526020013073ffffffffffffffffffffffffffffffffffffffff16815260200161012c4261077d919061159b565b815260200186815260200160008152602001600073ffffffffffffffffffffffffffffffffffffffff168152506040518263ffffffff1660e01b81526004016107c691906116ad565b6020604051808303816000875af11580156107e5573d6000803e3d6000fd5b505050506040513d601f19601f8201168201806040525081019061080991906116de565b9050610858600360009054906101000a900473ffffffffffffffffffffffffffffffffffffffff1660008054906101000a900473ffffffffffffffffffffffffffffffffffffffff1683610bd0565b60008054906101000a900473ffffffffffffffffffffffffffffffffffffffff1673ffffffffffffffffffffffffffffffffffffffff1663414bf389604051806101000160405280600460009054906101000a900473ffffffffffffffffffffffffffffffffffffffff1673ffffffffffffffffffffffffffffffffffffffff168152602001600360009054906101000a900473ffffffffffffffffffffffffffffffffffffffff1673ffffffffffffffffffffffffffffffffffffffff168152602001600260179054906101000a900462ffffff1662ffffff1681526020013073ffffffffffffffffffffffffffffffffffffffff16815260200161012c42610962919061159b565b815260200184815260200160008152602001600073ffffffffffffffffffffffffffffffffffffffff168152506040518263ffffffff1660e01b81526004016109ab91906116ad565b6020604051808303816000875af11580156109ca573d6000803e3d6000fd5b505050506040513d601f19601f820116820180604052508101906109ee91906116de565b905080915050919050565b610a73838473ffffffffffffffffffffffffffffffffffffffff1663a9059cbb8585604051602401610a2c92919061170b565b604051602081830303815290604052915060e01b6020820180517bffffffffffffffffffffffffffffffffffffffffffffffffffffffff8381831617835250505050610d25565b505050565b6000808573ffffffffffffffffffffffffffffffffffffffff166323b872dd60e01b868686604051602401610aaf93929190611734565b604051602081830303815290604052907bffffffffffffffffffffffffffffffffffffffffffffffffffffffff19166020820180517bffffffffffffffffffffffffffffffffffffffffffffffffffffffff8381831617835250505050604051610b1991906117dc565b6000604051808303816000865af19150503d8060008114610b56576040519150601f19603f3d011682016040523d82523d6000602084013e610b5b565b606091505b5091509150818015610b895750600081511480610b88575080806020019051810190610b8791906117f3565b5b5b610bc8576040517f08c379a0000000000000000000000000000000000000000000000000000000008152600401610bbf9061186c565b60405180910390fd5b505050505050565b6000808473ffffffffffffffffffffffffffffffffffffffff1663095ea7b360e01b8585604051602401610c0592919061170b565b604051602081830303815290604052907bffffffffffffffffffffffffffffffffffffffffffffffffffffffff19166020820180517bffffffffffffffffffffffffffffffffffffffffffffffffffffffff8381831617835250505050604051610c6f91906117dc565b6000604051808303816000865af19150503d8060008114610cac576040519150601f19603f3d011682016040523d82523d6000602084013e610cb1565b606091505b5091509150818015610cdf5750600081511480610cde575080806020019051810190610cdd91906117f3565b5b5b610d1e576040517f08c379a0000000000000000000000000000000000000000000000000000000008152600401610d15906118d8565b60405180910390fd5b5050505050565b6000610d50828473ffffffffffffffffffffffffffffffffffffffff16610dbc90919063ffffffff16565b90506000815114158015610d75575080806020019051810190610d7391906117f3565b155b15610db757826040517f5274afe7000000000000000000000000000000000000000000000000000000008152600401610dae9190611135565b60405180910390fd5b505050565b6060610dca83836000610dd2565b905092915050565b606081471015610e1957306040517fcd786059000000000000000000000000000000000000000000000000000000008152600401610e109190611135565b60405180910390fd5b6000808573ffffffffffffffffffffffffffffffffffffffff168486604051610e4291906117dc565b60006040518083038185875af1925050503d8060008114610e7f576040519150601f19603f3d011682016040523d82523d6000602084013e610e84565b606091505b5091509150610e94868383610e9f565b925050509392505050565b606082610eb457610eaf82610f2e565b610f26565b60008251148015610edc575060008473ffffffffffffffffffffffffffffffffffffffff163b145b15610f1e57836040517f9996b315000000000000000000000000000000000000000000000000000000008152600401610f159190611135565b60405180910390fd5b819050610f27565b5b9392505050565b600081511115610f415780518082602001fd5b6040517f1425ea4200000000000000000000000000000000000000000000000000000000815260040160405180910390fd5b600080fd5b600062ffffff82169050919050565b610f9081610f78565b8114610f9b57600080fd5b50565b600081359050610fad81610f87565b92915050565b600060208284031215610fc957610fc8610f73565b5b6000610fd784828501610f9e565b91505092915050565b6000819050919050565b610ff381610fe0565b82525050565b600060208201905061100e6000830184610fea565b92915050565b61101d81610f78565b82525050565b60006020820190506110386000830184611014565b92915050565b600073ffffffffffffffffffffffffffffffffffffffff82169050919050565b6000819050919050565b600061108361107e6110798461103e565b61105e565b61103e565b9050919050565b600061109582611068565b9050919050565b60006110a78261108a565b9050919050565b6110b78161109c565b82525050565b60006020820190506110d260008301846110ae565b92915050565b60006110e38261108a565b9050919050565b6110f3816110d8565b82525050565b600060208201905061110e60008301846110ea565b92915050565b600061111f8261103e565b9050919050565b61112f81611114565b82525050565b600060208201905061114a6000830184611126565b92915050565b600061115b8261108a565b9050919050565b61116b81611150565b82525050565b60006020820190506111866000830184611162565b92915050565b61119581610fe0565b81146111a057600080fd5b50565b6000813590506111b28161118c565b92915050565b6000602082840312156111ce576111cd610f73565b5b60006111dc848285016111a3565b91505092915050565b60006060820190506111fa6000830186611126565b6112076020830185611126565b6112146040830184611014565b949350505050565b61122581611114565b811461123057600080fd5b50565b6000815190506112428161121c565b92915050565b60006020828403121561125e5761125d610f73565b5b600061126c84828501611233565b91505092915050565b61127e8161103e565b811461128957600080fd5b50565b60008151905061129b81611275565b92915050565b60008160020b9050919050565b6112b7816112a1565b81146112c257600080fd5b50565b6000815190506112d4816112ae565b92915050565b600061ffff82169050919050565b6112f1816112da565b81146112fc57600080fd5b50565b60008151905061130e816112e8565b92915050565b600060ff82169050919050565b61132a81611314565b811461133557600080fd5b50565b60008151905061134781611321565b92915050565b60008115159050919050565b6113628161134d565b811461136d57600080fd5b50565b60008151905061137f81611359565b92915050565b600080600080600080600060e0888a0312156113a4576113a3610f73565b5b60006113b28a828b0161128c565b97505060206113c38a828b016112c5565b96505060406113d48a828b016112ff565b95505060606113e58a828b016112ff565b94505060806113f68a828b016112ff565b93505060a06114078a828b01611338565b92505060c06114188a828b01611370565b91505092959891949750929550565b7f4e487b7100000000000000000000000000000000000000000000000000000000600052601160045260246000fd5b600061146182610fe0565b915061146c83610fe0565b925082820261147a81610fe0565b9150828204841483151761149157611490611427565b5b5092915050565b7f4e487b7100000000000000000000000000000000000000000000000000000000600052601260045260246000fd5b60006114d282610fe0565b91506114dd83610fe0565b9250826114ed576114ec611498565b5b828204905092915050565b600082825260208201905092915050565b7f4f6e6c7920746865206f776e65722063616e2063616c6c20746869732066756e60008201527f6374696f6e000000000000000000000000000000000000000000000000000000602082015250565b60006115656025836114f8565b915061157082611509565b604082019050919050565b6000602082019050818103600083015261159481611558565b9050919050565b60006115a682610fe0565b91506115b183610fe0565b92508282019050808211156115c9576115c8611427565b5b92915050565b6115d881611114565b82525050565b6115e781610f78565b82525050565b6115f681610fe0565b82525050565b6116058161103e565b82525050565b6101008201600082015161162260008501826115cf565b50602082015161163560208501826115cf565b50604082015161164860408501826115de565b50606082015161165b60608501826115cf565b50608082015161166e60808501826115ed565b5060a082015161168160a08501826115ed565b5060c082015161169460c08501826115ed565b5060e08201516116a760e08501826115fc565b50505050565b6000610100820190506116c3600083018461160b565b92915050565b6000815190506116d88161118c565b92915050565b6000602082840312156116f4576116f3610f73565b5b6000611702848285016116c9565b91505092915050565b60006040820190506117206000830185611126565b61172d6020830184610fea565b9392505050565b60006060820190506117496000830186611126565b6117566020830185611126565b6117636040830184610fea565b949350505050565b600081519050919050565b600081905092915050565b60005b8381101561179f578082015181840152602081019050611784565b60008484015250505050565b60006117b68261176b565b6117c08185611776565b93506117d0818560208601611781565b80840191505092915050565b60006117e882846117ab565b915081905092915050565b60006020828403121561180957611808610f73565b5b600061181784828501611370565b91505092915050565b7f5354460000000000000000000000000000000000000000000000000000000000600082015250565b60006118566003836114f8565b915061186182611820565b602082019050919050565b6000602082019050818103600083015261188581611849565b9050919050565b7f5341000000000000000000000000000000000000000000000000000000000000600082015250565b60006118c26002836114f8565b91506118cd8261188c565b602082019050919050565b600060208201905081810360008301526118f1816118b5565b905091905056fea2646970667358221220355df4588a924111bf23f67583ba310c7235008bb12b7151522af5b1e88150d264736f6c63430008140033",
  "linkReferences": {},
  "deployedLinkReferences": {}
}